:020000040800F2
:1000000000000220212F0008012D0008072D000804
:100010000D2D0008132D0008192D00080000000008
:10002000000000000000000000000000919E000899
:100030001F2D000800000000E1A000082D2D000881
:10004000712F0008712F0008712F0008712F000810
:10005000712F0008712F0008712F0008712F000800
:10006000712F0008712F0008712F0008712F0008F0
:10007000712F0008712F0008712F0008712F0008E0
:10008000712F0008712F0008712F0008712F0008D0
:10009000712F0008712F0008712F0008712F0008C0
:1000A000712F0008712F0008712F0008712F0008B0
:1000B000712F0008712F0008492D0008712F0008CA
:1000C000712F0008712F0008712F0008712F000890
:1000D000712F0008712F0008712F00085D2D000896
:1000E000712F0008712F0008712F0008712F000870
:1000F000712F0008712F0008712F0008712F000860
:10010000712F0008712F0008712F0008712F00084F
:10011000712F0008712F0008712F0008712F00083F
:10012000712F0008712F0008712F0008712F00082F
:10013000712F0008712F0008712F0008712F00081F
:10014000712F0008712F0008712F0008712F00080F
:10015000712F0008712F0008712F0008712F0008FF
:10016000712F0008712F0008712F0008712F0008EF
:10017000712F0008712F0008712F00080000000087
:08018000712F0008712F000827
:1001900010B5054C237833B9044B13B10448AFF3C1
:1001A00000800123237010BD980000200000000093
:1001B00088C0000808B5034B1BB103490348AFF3DF
:1001C000008008BD000000009C00002088C00008DE
:1001D00010F8012B11F8013B012A28BF9A42F7D0F1
:1001E000D01A70470000000000000000000000006E
:1001F00001F0FF01102A2BDB10F0070F08D010F8D8
:10020000013B013A8B422DD010F0070F42B3F6D1DB
:10021000F0B441EA012141EA014122F007047FF0F4
:1002200000070023F0E80256083C85EA010586EA4B
:10023000010685FA47F5A3FA87F586FA47F6A5FA87
:1002400087F68EB9EED1F0BC01F0FF0102F0070293
:1002500032B110F8013B013A83EA010313B1F8D13E
:100260000020704701387047002D06BF354603381F
:10027000073815F0010F07D1013015F4807F02BF58
:10028000013015F4C03F0130F0BC0138704700BFA9
:1002900081F0004102E000BF83F0004330B54FEA37
:1002A00041044FEA430594EA050F08BF90EA020FA4
:1002B0001FBF54EA000C55EA020C7FEA645C7FEA37
:1002C000655C00F0E2804FEA5454D4EB5555B8BF5A
:1002D0006D420CDD2C4480EA020281EA030382EACB
:1002E000000083EA010180EA020281EA0303362D5D
:1002F00088BF30BD11F0004F4FEA01314FF4801C30
:100300004CEA113102D0404261EB410113F0004F41
:100310004FEA03334CEA133302D0524263EB4303F8
:1003200094EA050F00F0A780A4F10104D5F1200E96
:100330000DDB02FA0EFC22FA05F2801841F10001F1
:1003400003FA0EF2801843FA05F359410EE0A5F1C5
:1003500020050EF1200E012A03FA0EFC28BF4CF0F6
:10036000020C43FA05F3C01851EBE37101F00045AC
:1003700007D54FF0000EDCF1000C7EEB00006EEBB9
:100380000101B1F5801F1BD3B1F5001F0CD3490843
:100390005FEA30004FEA3C0C04F101044FEA44529A
:1003A00012F5800F80F09A80BCF1004F08BF5FEA21
:1003B000500C50F1000041EB045141EA050130BD01
:1003C0005FEA4C0C404141EB0101013C28BFB1F513
:1003D000801FE9D291F0000F04BF01460020B1FA5E
:1003E00081F308BF2033A3F10B03B3F120020CDA31
:1003F0000C3208DD02F1140CC2F10C0201FA0CF00F
:1004000021FA02F10CE002F11402D8BFC2F1200C73
:1004100001FA02F120FA0CFCDCBF41EA0C01904029
:10042000E41AA2BF01EB0451294330BD6FEA040472
:100430001F3C1CDA0C340EDC04F11404C4F120025D
:1004400020FA04F001FA02F340EA030021FA04F36F
:1004500045EA030130BDC4F10C04C4F1200220FAC6
:1004600002F001FA04F340EA0300294630BD21FA04
:1004700004F0294630BD94F0000F83F4801306BFCA
:1004800081F480110134013D4EE77FEA645C18BFBE
:100490007FEA655C29D094EA050F08BF90EA020F55
:1004A00005D054EA000C04BF1946104630BD91EA4D
:1004B000030F1EBF0021002030BD5FEA545C05D150
:1004C0004000494128BF41F0004130BD14F580048F
:1004D0003CBF01F5801130BD01F0004545F0FE4103
:1004E00041F470014FF0000030BD7FEA645C1ABF38
:1004F000194610467FEA655C1CBF0B46024650EA6F
:10050000013406BF52EA033591EA030F41F400219A
:1005100030BD00BF90F0000F04BF0021704730B520
:100520004FF4806404F132044FF000054FF00001F5
:1005300050E700BF90F0000F04BF0021704730B5B6
:100540004FF4806404F1320410F0004548BF40428B
:100550004FF000013EE700BF42004FEAE2014FEAE0
:1005600031014FEA02701FBF12F07F4393F07F4FBB
:1005700081F06051704732F07F4208BF704793F0BE
:100580007F4F04BF41F40021704730B54FF46074D1
:1005900001F0004521F000411CE700BF50EA0102D4
:1005A00008BF704730B54FF000050AE050EA01027D
:1005B00008BF704730B511F0004502D5404261EBED
:1005C00041014FF4806404F132045FEA915C3FF42E
:1005D000D8AE4FF003025FEADC0C18BF03325FEACB
:1005E000DC0C18BF033202EBDC02C2F1200300FA7C
:1005F00003FC20FA02F001FA03FE40EA0E0021FAA1
:1006000002F11444BDE600BF70B54FF0FF0C4CF48E
:10061000E06C1CEA11541DBF1CEA135594EA0C0F40
:1006200095EA0C0F00F0DEF82C4481EA030621EA7B
:100630004C5123EA4C5350EA013518BF52EA0335B6
:1006400041F4801143F4801338D0A0FB02CE4FF068
:100650000005E1FB02E506F00042E0FB03E54FF098
:100660000006E1FB03569CF0000F18BF4EF0010E90
:10067000A4F1FF04B6F5007F64F5407404D25FEA8C
:100680004E0E6D4146EB060642EAC62141EA55513F
:100690004FEAC52040EA5E504FEACE2EB4F1FD0C81
:1006A00088BFBCF5E06F1ED8BEF1004F08BF5FEAFF
:1006B000500E50F1000041EB045170BD06F00046B1
:1006C00046EA010140EA020081EA0301B4EB5C045E
:1006D000C2BFD4EB0C0541EA045170BD41F4801156
:1006E0004FF0000E013C00F3AB8014F1360FDEBF7B
:1006F000002001F0004170BDC4F10004203C35DA57
:100700000C341BDC04F11404C4F1200500FA05F3D9
:1007100020FA04F001FA05F240EA020001F000427A
:1007200021F0004110EBD37021FA04F642EB0601F0
:100730005EEA430E08BF20EAD37070BDC4F10C041A
:10074000C4F1200500FA04F320FA05F001FA04F2DE
:1007500040EA020001F0004110EBD37041F10001CA
:100760005EEA430E08BF20EAD37070BDC4F12005D5
:1007700000FA05F24EEA020E20FA04F301FA05F23D
:1007800043EA020321FA04F001F0004121FA04F2E5
:1007900020EA020000EBD3705EEA430E08BF20EAB5
:1007A000D37070BD94F0000F0FD101F000464000EF
:1007B00041EB010111F4801F08BF013CF7D041EA71
:1007C000060195F0000F18BF704703F00046520075
:1007D00043EB030313F4801F08BF013DF7D043EA46
:1007E0000603704794EA0C0F0CEA135518BF95EAFC
:1007F0000C0F0CD050EA410618BF52EA4306D1D183
:1008000081EA030101F000414FF0000070BD50EAA1
:10081000410606BF1046194652EA430619D094EA2B
:100820000C0F02D150EA013613D195EA0C0F05D115
:1008300052EA03361CBF104619460AD181EA030169
:1008400001F0004141F0FE4141F470014FF0000021
:1008500070BD41F0FE4141F4780170BD70B54FF0BC
:10086000FF0C4CF4E06C1CEA11541DBF1CEA13553C
:1008700094EA0C0F95EA0C0F00F0A7F8A4EB05041E
:1008800081EA030E52EA03354FEA013100F0888015
:100890004FEA03334FF0805545EA131343EA1263DE
:1008A0004FEA022245EA111545EA10654FEA002693
:1008B0000EF000419D4208BF964244F1FD0404F54C
:1008C000407402D25B084FEA3202B61A65EB0305A8
:1008D0005B084FEA32024FF480104FF4002CB6EB65
:1008E000020E75EB030E22BFB61A754640EA0C00E5
:1008F0005B084FEA3202B6EB020E75EB030E22BF25
:10090000B61A754640EA5C005B084FEA3202B6EB65
:10091000020E75EB030E22BFB61A754640EA9C0024
:100920005B084FEA3202B6EB020E75EB030E22BFF4
:10093000B61A754640EADC0055EA060E18D04FEAB2
:10094000051545EA16754FEA06164FEAC30343EA52
:1009500052734FEAC2025FEA1C1CC0D111F4801F1F
:100960000BD141EA00014FF000004FF0004CB6E718
:1009700011F4801F04BF01430020B4F1FD0C88BFB7
:10098000BCF5E06F3FF6AFAEB5EB030C04BFB6EBC2
:10099000020C5FEA500C50F1000041EB045170BDB5
:1009A0000EF0004E4EEA113114EB5C04C2BFD4EBE2
:1009B0000C0541EA045170BD41F480114FF0000E66
:1009C000013C90E645EA060E8DE60CEA135594EAE2
:1009D0000C0F08BF95EA0C0F3FF43BAF94EA0C0FE5
:1009E0000AD150EA01347FF434AF95EA0C0F7FF45A
:1009F00025AF104619462CE795EA0C0F06D152EAAE
:100A000003353FF4FDAE1046194622E750EA410691
:100A100018BF52EA43067FF4C5AE50EA41047FF4A2
:100A20000DAF52EA43057FF4EBAE12E74FF0FF3C07
:100A300006E000BF4FF0010C02E000BF4FF0010CD8
:100A40004DF804CD4FEA410C7FEA6C5C4FEA430C51
:100A500018BF7FEA6C5C1BD001B050EA410C0CBFA0
:100A600052EA430C91EA030F02BF90EA020F002002
:100A7000704710F1000F91EA030F58BF994208BF69
:100A800090422CBFD8176FEAE37040F00100704726
:100A90004FEA410C7FEA6C5C02D150EA013C07D17D
:100AA0004FEA430C7FEA6C5CD6D152EA033CD3D0C8
:100AB0005DF8040B704700BF8446104662468C46C2
:100AC0001946634600E000BF01B5FFF7B7FF0028F5
:100AD00048BF10F1000F01BD4DF808EDFFF7F4FF1E
:100AE0000CBF012000205DF808FB00BF4DF808EDA9
:100AF000FFF7EAFF34BF012000205DF808FB00BFCC
:100B00004DF808EDFFF7E0FF94BF012000205DF8ED
:100B100008FB00BF4DF808EDFFF7CEFF94BF0120A2
:100B200000205DF808FB00BF4DF808EDFFF7C4FF9B
:100B300034BF012000205DF808FB00BF4A0011D23D
:100B400012F5001211D20DD56FF47873B3EB625227
:100B50000ED44FEAC12343F0004343EA505323FA33
:100B600002F070474FF00000704750EA013002D1A8
:100B70004FF0FF3070474FF00000704753B94AB94B
:100B8000002908BF00281CBF4FF0FF314FF0FF3095
:100B900000F074B9ADF1080C6DE904CE00F006F870
:100BA000DDF804E0DDE9022304B070472DE9F047E9
:100BB000089D04468E46002B4DD18A42944669D941
:100BC000B2FA82F252B101FA02F3C2F1200120FA24
:100BD00001F10CFA02FC41EA030E94404FEA1C4872
:100BE000210CBEFBF8F61FFA8CF708FB16E341EA6E
:100BF000034306FB07F199420AD91CEB030306F1F4
:100C0000FF3080F01F81994240F21C81023E634414
:100C10005B1AA4B2B3FBF8F008FB103344EA0344B8
:100C200000FB07F7A7420AD91CEB040400F1FF33CD
:100C300080F00A81A74240F207816444023840EA0A
:100C40000640E41B00261DB1D4400023C5E9004343
:100C50003146BDE8F0878B4209D9002D00F0EF80C6
:100C60000026C5E9000130463146BDE8F087B3FAF9
:100C700083F6002E4AD18B4202D3824200F2F980E1
:100C8000841A61EB030301209E46002DE0D0C5E9E4
:100C9000004EDDE702B9FFDEB2FA82F2002A40F030
:100CA0009280A1EB0C014FEA1C471FFA8CFE012633
:100CB000200CB1FBF7F307FB131140EA01410EFBD7
:100CC00003F0884208D91CEB010103F1FF3802D27E
:100CD000884200F2CB804346091AA4B2B1FBF7F078
:100CE00007FB101144EA01440EFB00FEA64508D99B
:100CF0001CEB040400F1FF3102D2A64500F2BB80D8
:100D00000846A4EB0E0440EA03409CE7C6F1200726
:100D1000B34022FA07FC4CEA030C20FA07F401FA6C
:100D200006F31C43F9404FEA1C4900FA06F3B1FBF5
:100D3000F9F8200C1FFA8CFE09FB181140EA01415A
:100D400008FB0EF0884202FA06F20BD91CEB0101F7
:100D500008F1FF3A80F08880884240F28580A8F14F
:100D600002086144091AA4B2B1FBF9F009FB1011A1
:100D700044EA014100FB0EFE8E4508D91CEB01013F
:100D800000F1FF346CD28E456AD90238614440EAE2
:100D90000840A0FB0294A1EB0E01A142C846A64662
:100DA00056D353D05DB1B3EB080261EB0E0101FAEB
:100DB00007F722FA06F3F1401F43C5E90071002648
:100DC0003146BDE8F087C2F12003D8400CFA02FC9E
:100DD00021FA03F3914001434FEA1C471FFA8CFEAE
:100DE000B3FBF7F007FB10360B0C43EA064300FB9E
:100DF0000EF69E4204FA02F408D91CEB030300F13C
:100E0000FF382FD29E422DD9023863449B1B89B2F2
:100E1000B3FBF7F607FB163341EA034106FB0EF37B
:100E20008B4208D91CEB010106F1FF3816D28B4228
:100E300014D9023E6144C91A46EA004638E72E46F4
:100E4000284605E70646E3E61846F8E64B45A9D2EC
:100E5000B9EB020864EB0C0E0138A3E74646EAE75B
:100E6000204694E74046D1E7D0467BE7023B614409
:100E700032E7304609E76444023842E7704700BF72
:100E800080B500AF02F076F800F088F800F09CFB27
:100E900000F0C6FA00F0ACF900F0FEF900F00AF933
:100EA00000F068FB00F04CFA00F0D6F809F06CFD99
:100EB0000021224804F070FA32222149214805F02D
:100EC0005CFE06F06BFE204A0021204806F0B0FED2
:100ED00003461F4A13601F4A00211F4806F0A8FE60
:100EE00003461E4A13601E4A00211E4806F0A0FE5B
:100EF00003461D4A13601D4A00211D4806F098FE56
:100F000003461C4A13601C4A00211C4806F090FE50
:100F100003461B4A13601B4A00211B4806F088FE4B
:100F200003461A4A13601A4A00211A4806F080FE46
:100F30000346194A136006F055FEFEE7E001002063
:100F4000D00200207002002098C100086923000828
:100F5000B4020020BCC10008B9230008B802002078
:100F6000E0C1000839240008BC02002004C20008C7
:100F700079240008C002002028C20008ED250008DE
:100F8000C40200204CC2000839260008C802002014
:100F900070C200087D270008CC02002080B594B004
:100FA00000AF07F1200330220021184609F0BCFDF4
:100FB00007F10C0300221A605A609A60DA601A6125
:100FC0000023BB60224B1B6C214A43F08053136407
:100FD0001F4B1B6C03F08053BB60BB6800237B601E
:100FE0001C4B1B681B4A43F480431360194B1B685E
:100FF00003F480437B607B6802233B620123FB6236
:1010000010233B630023BB6307F12003184603F062
:10101000A1FB0346002B01D001F038FC0F23FB603D
:1010200000233B6100237B610023BB610023FB6144
:1010300007F10C030021184603F004FE0346002BC1
:1010400001D001F023FC00BF5037BD4680BD00BF7A
:10105000003802400070004080B500AF124B134AC8
:101060001A60114B124A5A600F4B00229A600E4BC5
:101070000022DA600C4B4FF480421A610A4B0022C6
:101080005A61094B00229A61074B0022DA61064B34
:1010900000221A62044802F075FB0346002B01D0BF
:1010A00001F0F4FB00BF80BDB400002000540040FC
:1010B000801A060080B596B000AF07F14803002201
:1010C0001A605A609A60DA6007F1400300221A60E1
:1010D0005A6007F1240300221A605A609A60DA60AD
:1010E0001A615A619A613B1D20220021184609F0BD
:1010F0001BFD3D4B3D4A1A603B4BA0225A603A4BC8
:1011000000229A60384B4FF47A72DA60364B002234
:101110001A61354B00225A61334B80229A61324862
:1011200003F070FF0346002B01D001F0AFFB4FF43A
:101130008053BB6407F1480319462B4804F0EEFDC9
:101140000346002B01D001F0A1FB274803F0A9FFC3
:101150000346002B01D001F099FB00233B640023E0
:101160007B6407F1400319461F4805F045FB034621
:10117000002B01D001F08AFB60237B620023BB625D
:101180000023FB6200237B630023BB630023FB631C
:1011900007F124030C221946134804F0FDFC034612
:1011A000002B01D001F072FB00237B600023BB60A9
:1011B0000023FB6000233B6100237B614FF400535D
:1011C000BB6100233B623B1D1946074805F090FBBD
:1011D0000346002B01D001F059FB034801F006FD46
:1011E00000BF5837BD4680BD080100200000014007
:1011F00080B58CB000AF07F10C0324220021184603
:1012000009F092FC3B1D00221A605A60214B4FF0FE
:1012100080421A601F4B00225A601E4B00229A60C7
:101220001C4B4FF6FF72DA601A4B00221A61194B01
:1012300000229A610323FB6000233B6101237B6151
:101240000023BB610A23FB6100233B6201237B6215
:101250000023BB620A23FB6207F10C0319460D4809
:1012600004F0C2F90346002B01D001F00FFB00236C
:101270007B600023BB603B1D1946064805F0BCFAA5
:101280000346002B01D001F001FB00BF3037BD4603
:1012900080BD00BF5001002080B58CB000AF07F1C9
:1012A0000C0324220021184609F03EFC3B1D0022BD
:1012B0001A605A60204B214A1A601F4B00225A6064
:1012C0001D4B00229A601C4B4FF6FF72DA601A4BDE
:1012D00000221A61184B00229A610323FB6000234D
:1012E0003B6101237B610023BB610A23FB61002377
:1012F0003B6201237B620023BB620A23FB6207F18E
:101300000C0319460C4804F06FF90346002B01D07A
:1013100001F0BCFA00237B600023BB603B1D194633
:10132000054805F069FA0346002B01D001F0AEFA3A
:1013300000BF3037BD4680BD98010020000400404A
:1013400080B58AB000AF07F1180300221A605A6016
:101350009A60DA6007F1100300221A605A603B4677
:1013600000221A605A609A60DA602B4B2B4A1A608E
:10137000294B0F225A60284B00229A60264B4FF6C9
:10138000FE72DA60244B00221A61234B00229A611C
:10139000214803F037FE0346002B01D001F076FA16
:1013A0004FF48053BB6107F1180319461A4804F043
:1013B000B5FC0346002B01D001F068FA164803F093
:1013C00091FF0346002B01D001F060FA00233B613E
:1013D00000237B6107F1100319460F4805F00CFA52
:1013E0000346002B01D001F051FA00233B6001239A
:1013F0007B600023BB600023FB603B460022194654
:10140000054804F02DFB0346002B01D001F03EFA05
:1014100000BF2837BD4680BDE00100200008004025
:1014200080B596B000AF07F1480300221A605A60F9
:101430009A60DA6007F1400300221A605A6007F1EF
:10144000240300221A605A609A60DA601A615A61B5
:101450009A613B1D20220021184609F065FB434B91
:10146000434A1A60414B00225A60404B00229A6066
:101470003E4B41F61F42DA603C4B00221A613B4B67
:1014800000225A61394B00229A61384803F0BAFDB4
:101490000346002B01D001F0F9F94FF48053BB64EF
:1014A00007F148031946314804F038FC0346002B85
:1014B00001D001F0EBF92D4803F0F3FD0346002BBA
:1014C00001D001F0E3F900233B6400237B6407F1C2
:1014D00040031946254805F08FF90346002B01D03B
:1014E00001F0D4F960237B620023BB620023FB621E
:1014F00000233B6300237B630023BB630023FB6368
:1015000007F1240300221946184804F045FB03465E
:10151000002B01D001F0BAF907F124030422194687
:10152000124804F039FB0346002B01D001F0AEF95C
:1015300000237B600023BB600023FB6000233B6132
:1015400000237B614FF40053BB6100233B623B1DD2
:101550001946064805F0CCF90346002B01D001F0EE
:1015600095F900BF5837BD4680BD00BF2802002056
:101570000004014080B500AF114B124A1A60104BB5
:101580004FF4E1325A600E4B00229A600C4B00225D
:10159000DA600B4B00221A61094B0C225A61084B8E
:1015A00000229A61064B0022DA61054805F006FA2E
:1015B0000346002B01D001F069F900BF80BD00BFD8
:1015C000700200200048004080B58AB000AF07F1EB
:1015D000140300221A605A609A60DA601A610023CC
:1015E0003B61634B1B6B624A43F010031363604B18
:1015F0001B6B03F010033B613B690023FB605C4BFA
:101600001B6B5B4A43F001031363594B1B6B03F0E5
:101610000103FB60FB680023BB60554B1B6B544A06
:1016200043F002031363524B1B6B03F00203BB60D6
:10163000BB6800237B604E4B1B6B4D4A43F0080395
:1016400013634B4B1B6B03F008037B607B68002329
:101650003B60474B1B6B464A43F004031363444B08
:101660001B6B03F004033B603B6800224FF4BC613A
:10167000404802F06DF800223C213F4802F068F833
:1016800000224FF480613D4802F062F800224FF4DE
:1016900000513B4802F05CF801220221354802F07B
:1016A00057F84FF4BC637B610123BB610023FB61EE
:1016B00000233B6207F1140319462E4801F094FE03
:1016C0003C237B610123BB610023FB6102233B625E
:1016D00007F114031946284801F086FE4FF4806391
:1016E0007B610123BB610023FB6101233B6207F1A6
:1016F00014031946214801F077FE4FF480737B6193
:101700000023BB610023FB6107F1140319461C4849
:1017100001F06AFE4FF400537B610123BB6100239B
:10172000FB6100233B6207F114031946144801F0E2
:101730005BFE01237B610023BB610023FB6107F19A
:10174000140319460B4801F04FFE02237B6101236D
:10175000BB610023FB6102233B6207F114031946BE
:10176000044801F041FE00BF2837BD4680BD00BFE0
:101770000038024000100240000002400004024015
:10178000000C024080B500AF084B1B68AA221A6407
:101790004FF4C87006F0DFFA044B1B6893221A64FA
:1017A0004FF4967006F0D7FA00BF80BD0801002004
:1017B00090B587B000AF364B1B78012B14D10122B6
:1017C0000821344801F0C4FF01221021314801F002
:1017D000BFFF002204212F4801F0BAFF0022202180
:1017E0002C4801F0B5FF13E000220821294801F040
:1017F000AFFF00221021274801F0AAFF0122042197
:10180000244801F0A5FF01222021224801F0A0FF79
:10181000214B1A78214B1B681A6401F011FC786186
:101820001F4BD3E90023C7E902231E4BD3E9002352
:10183000C7E900230FE01C4B1C68D7E90201FFF742
:101840007DF903466363184B1C68D7E90001FFF775
:1018500075F90346A36301F0F3FB02467B69D31AD3
:101860001846FEF757FE114BD3E90023FFF748F95E
:101870000346002BDFD10C4B1B6800225A630A4B36
:101880001B6800229A6300BF1C37BD4690BD00BF95
:10189000200000200000024021000020080100205C
:1018A000100000201800002028020020080300205B
:1018B00080B588B000AF87ED060B87ED041B0346AB
:1018C00087ED002BFB73A449D7E90623C1E9002368
:1018D000A249D7E90423C1E90023A14AFB7B137085
:1018E0004FF000029F4BD7E90001FEF78DFE024644
:1018F0000B461046194694A3D3E90023FEF784FE55
:1019000002460B469849C1E9002398494FF000026E
:101910004FF00003C1E9002395494FF000024FF05A
:101920000003C1E90023934B93221A70ACE0914B62
:101930001A78914B1A708A4B1B78012B43D18C4B30
:10194000D3E90023FB2A73F1000315DB894B1B78D5
:101950000133DAB2874B1A7088494FF00002884B86
:10196000C1E90023FFF724FF81494FF000024FF047
:101970000003C1E900236BE07D4BD3E9002312F1A2
:10198000FA0F73F1FF3315DA7A4B1B78013BDAB2A9
:10199000784B1A7079494FF00002794BC1E9002366
:1019A000FFF706FF72494FF000024FF00003C1E954
:1019B00000234DE071494FF00002714BC1E9002353
:1019C000FFF7F6FE44E06A4BD3E9002340F2F5113D
:1019D0008A4273F1000315DB664B1B78013BDAB2D8
:1019E000644B1A7065494FF00002654BC1E9002352
:1019F000FFF7DEFE5E494FF000024FF00003C1E941
:101A0000002325E05A4BD3E9002312F5FA7F73F146
:101A1000FF3315DA574B1B780133DAB2554B1A7086
:101A200056494FF00002564BC1E90023FFF7C0FEB4
:101A30004F494FF000024FF00003C1E9002307E0D7
:101A40004E494FF000024E4BC1E90023FFF7B0FEB4
:101A50004C4BB3F904301A464B494C4809F05CF939
:101A60004FF6FF730A224949494804F0F4FF3F4BFF
:101A7000D3E900014FF00002414BFEF70FFC024694
:101A80000B463A49C1E90023374BD3E9000130A3A3
:101A9000D3E90023FEF7B8FD02460B46104619466F
:101AA000324BD3E90023FFF735F80346002B7FF4D0
:101AB0003EAF32E0304B93221A7027494FF00002BC
:101AC000344BC1E9002325494FF00002324BC1E9F4
:101AD00000232A494FF00002294BC1E90023FFF7F8
:101AE00067FE284BB3F904301A462749274809F006
:101AF00013F94FF6FF730A222449254804F0ABFF7F
:101B00001A4BD3E900014FF000021D4BFEF7C6FB54
:101B100002460B461549C1E90023144BD3E90001E5
:101B2000114BD3E90023FEF7EBFF0346002BC1D195
:101B30004FF6FF730A221949154804F08CFF00BFC5
:101B40002037BD4680BD00BF8FC2F5285C8FDA3FCD
:101B50009A9999999999E93F10000020180000205E
:101B600020000020008040401003002018030020C7
:101B70007003002022000020210000200803002024
:101B800000003E4058030020F8C000083003002049
:101B90007002002000209C4000409F400000002078
:101BA0002DE9B04384B000AF0346B9607A60FB739F
:101BB0005F494FF000024FF00003C1E900235D4A86
:101BC000FB7B1370BB68002B04D15B4B1B68692245
:101BD0001A6403E0584B1B68D2221A644FF49670C3
:101BE00006F0B9F831E0BB68002B17D153494FF02C
:101BF0000002534BC1E9002352494FF00002524BFF
:101C0000C1E9002351494FF00002514BC1E90023C3
:101C1000504B69221A70FFF7CBFD16E047494FF091
:101C20000002474BC1E9002346494FF00002484BF0
:101C3000C1E9002345494FF00002434BC1E90023AD
:101C4000444BD2221A70FFF7B3FD394BD3E900237E
:101C500010461946FEF7A2FC804689467B684FF481
:101C6000757202FB03F31846FEF764FC2EA3D3E95A
:101C70000023FEF7C9FC02460B4640464946FEF7E4
:101C80003FFF0346002BAED131E0BB68002B17D1DC
:101C90002A494FF000022A4BC1E9002329494FF09D
:101CA00000022D4BC1E9002328494FF00002264BCA
:101CB000C1E90023274B69221A70FFF779FD16E06E
:101CC0001E494FF000021E4BC1E900231D494FF091
:101CD00000021D4BC1E900231C494FF000021E4BBE
:101CE000C1E900231B4BD2221A70FFF761FD7B680C
:101CF0004FF4757202FB03F3DA171C4615460C4BC2
:101D0000D3E90023944275EB0303BED2FFF73AFDFB
:101D10004FF6FF730A221149114804F09CFE00BFE0
:101D20001037BD46BDE8B083666666666666E63F08
:101D3000600300202000002008010020080300208C
:101D4000000024401000002000C092401800002035
:101D500000C0A2402100002000C0824000000020FE
:101D60007002002080B586B004AF03460A46FB71BE
:101D70001346BB71FB799AB24FF6FF7302930123AE
:101D80000193BB1D00930123D021034801F03EFEC7
:101D900000BF0837BD4680BDB400002080B588B0C4
:101DA00004AF0346FB710023FB73FB799AB24FF635
:101DB000FF7302930123019307F10F0300930123A3
:101DC000D021044801F01CFFFB7B18461037BD46AC
:101DD00080BD00BFB400002080B584B000AF0346D2
:101DE000FB710B46BB7113467B7130217F20FFF7DF
:101DF000B9FFFB7919460720FFF7B4FFBB791946F5
:101E00000820FFF7AFFF7B7919460A20FFF7AAFFEA
:101E100081210920FFF7A6FF00217F20FFF7A2FF05
:101E20000320FFF7BBFF0346FB73FB7B43F020035C
:101E3000FB73FB7B19460320FFF794FF052005F099
:101E40008AFFFB7B23F02003FB73FB7B19460320F7
:101E5000FFF788FF30217F20FFF784FF0520FFF781
:101E60009DFF0346FB73FB7B19460520FFF77AFFB6
:101E700000217F20FFF776FF00BF1037BD4680BDF1
:101E800080B487B000AFF860B9603B601346FB8058
:101E9000FB681B785A1CD1B2FA6811705B00BA68F3
:101EA0001344FA881A80FB681B7803F00703DAB240
:101EB000FB681A703B6800221A600023FB750DE076
:101EC0003B681B68FA7D5200B9680A44B2F90020E9
:101ED0001A443B681A60FB7D0133FB75FB7D072BC1
:101EE000EED93B681B68DA103B681A6000BF1C37EC
:101EF000BD465DF8047B704790B58DB000AFF860CB
:101F0000B9607A6007F1200300221A609A8007F115
:101F1000140300221A605A609A604F4BB3F90030E4
:101F20009BB201339BB21AB24B4B1A803420FFF79D
:101F300035FF034687F828303320FFF72FFF03468D
:101F400087F8293097F829301B021AB297F8283001
:101F50001BB213431BB23B843620FFF71FFF03461F
:101F600087F828303520FFF719FF034687F8293016
:101F700097F829301B021AB297F828301BB2134386
:101F80001BB27B843820FFF709FF034687F828300F
:101F90003720FFF703FF034687F8293097F82930E9
:101FA0001B021AB297F828301BB213431BB2BB8432
:101FB000002387F82F3025E097F82F201346DB0009
:101FC00013445B00254A981897F82F201346DB002E
:101FD00013445B00214A1344991C97F82F305B008F
:101FE00030333B4433F9104C97F82F309B0007F106
:101FF000140213442246FFF743FF97F82F300133B2
:1020000087F82F3097F82F30022BD5D97B699AB2F9
:10201000134BB3F900309BB2D31A9BB21AB2FB68D0
:102020001A80BB699AB20E4BB3F902309BB2D31A35
:102030009BB21AB2BB681A80FB699AB2084BB3F91B
:1020400004309BB2D31A9BB21AB27B681A8000BFCD
:102050003437BD4690BD00BF780300207C030020CC
:102060004003002080B586B000AF0023FB80002332
:10207000BB8000237B8000233B610023FB600023A7
:10208000BB600023FB751DE0BA1C391DBB1D184643
:10209000FFF732FFB7F906301A463B6913443B613C
:1020A000B7F904301A46FB681344FB60B7F90230F5
:1020B0001A46BB681344BB600A2005F04CFEFB7D4A
:1020C0000133FB75FB7D1F2BDED93B695B111AB217
:1020D000074B1A80FB685B111AB2054B5A80BB682C
:1020E0005B111AB2024B9A8000BF1837BD4680BD03
:1020F0004003002080B500AF1E4A1F491F48FFF76C
:10210000FBFE1E4BB3F900201D4B1A801B4BB3F98D
:1021100002201B4B5A80194BB3F90420184B9A80AC
:10212000174BB3F900309AB2164BB3F900309BB29B
:10213000D31A9BB21AB2114B1A80114BB3F9023069
:102140009AB2104BB3F902309BB2D31A9BB21AB2B7
:102150000A4B5A800A4BB3F904309AB2094BB3F9CF
:1021600004309BB2D31A9BB21AB2044B9A8000BFC0
:1021700080BD00BF5C0300205A03002058030020EC
:10218000500300204803002080B500AF00217F20CD
:10219000FFF7E8FD41210620FFF7E4FD0A2005F0E6
:1021A000DAFD01210620FFF7DDFD20217F20FFF76A
:1021B000D9FD07210020FFF7D5FD33210120FFF7CE
:1021C000D1FD07211120FFF7CDFD31211420FFF7AC
:1021D000C9FD00217F20FFF7C5FD642005F0BBFD90
:1021E000FFF740FF082231210C20FFF7F5FD00BF6B
:1021F00080BD00000000000080B582B000AF7860B4
:102200007B681A68464B1B689A427ED17B681B7FAD
:10221000012B7AD1434B1B78002B1AD10021404867
:1022200003F044FE0346404A13603E4B01221A70FD
:102230003B4B1B681A6A3A4B1B6822F00A021A626F
:10224000374B1B681A6A364B1B6842F002021A624F
:102250005BE0344B1B78012B57D10021304803F051
:1022600025FE0346314A13602D4B1B6800225A623B
:102270002E4B1A682C4B1B689A4207D92B4B1A68B5
:10228000294B1B68D31A2A4A13600FE0264B1A68A1
:10229000264B1B689A4209D9244B1A68224B1B68AB
:1022A000D31A03F57F43FF33214A1360204B1B6889
:1022B0001846FEF72FF918A3D3E90023FEF7A4F977
:1022C00002460B46104619464FF000024FF080437D
:1022D000FEF7C4FA02460B4610461946FEF72EFCDE
:1022E0000346DAB2134B1A700E4B00221A700C4BD5
:1022F0001B681A6A0A4B1B6822F00A021A62084B12
:102300001A68074B1B68126A1A6200BF0837BD467D
:1023100080BD00BFAFF300809CC420B07268A13FB5
:10232000E00100202C0300202003002024030020D3
:10233000280300202D03002080B582B000AF786014
:1023400014220749074804F05DFC4FF6FF7314227E
:102350000349044804F07FFB00BF0837BD4680BD39
:10236000D00200207002002080B582B000AF7860FB
:102370004FF480710E4801F0D3F90346002B13D1BE
:102380000C4B1B780C2B09D80A4B1B780133DAB2A3
:10239000084B1A70642005F0DEFC05E0054B0022B6
:1023A0001A70642005F0D7FC642005F0D4FCDFE748
:1023B000000C02402E03002080B58CB000AF786086
:1023C0000023FB6107F1200300221A605A609A6023
:1023D000DA600023BB6007F10C0300221A605A6028
:1023E0009A60DA6007F108030F4A1049184608F0AE
:1023F00093FC07F108031A462821002008F092FAFE
:102400000B4B1B781A4607F11C030A49184608F0C3
:1024100083FC07F11C031A461E21002008F082FAF3
:1024200008F00CF9DEE700BFD002002020C1000850
:102430002D03002024C1000880B584B000AF78606F
:1024400000210B4802F086FE0421094802F082FEBA
:102450000C21084802F07EFE0023BB600123FB60D4
:10246000FB68012BFCD1FFF78DF90023FB60F7E738
:10247000280200200801002080B590B000AF7860ED
:102480003C21564803F056F93C21554803F052F9D7
:10249000524B1B685B6AFB63514B1B685B6A7B6337
:1024A00000F0CEFDF86200F0CBFD0246FB6AD31AC5
:1024B000B3F57A7FF7D9494B1B685B6ABB62484B1F
:1024C0001B685B6A7B62454B1B681B6803F010034B
:1024D000102B10D1BA6AFB6B9A4204DAFA6BBB6A12
:1024E000D31ABB6316E0BB6AC3F57F43FF33FA6BB5
:1024F0001344BB630EE0BA6AFB6B9A4204DDBA6A0E
:10250000FB6BD31ABB6305E0FB6BC3F58033BA6A80
:102510001344BB63324B1B681B6803F01003102B82
:1025200010D17A6A7B6B9A4204DA7A6B7B6AD31A8F
:102530003B6316E07B6AC3F57F43FF337A6B13443A
:102540003B630EE07A6A7B6B9A4204DD7A6A7B6BAE
:10255000D31A3B6305E07B6BC3F580337A6A13447F
:102560003B6307F10C03BA6B1E49184608F0D4FB15
:1025700007F10C031A460021002008F0D3F907F1F7
:102580000C033A6B1849184608F0C6FB07F10C0318
:102590001A460A21002008F0C5F9BA6B3B6B1344B8
:1025A000DA0F13445B103B62BA6B3B6A9A4202DC5F
:1025B000BA6B3B6A9A423A6B3B6A9A4202DC3A6BCC
:1025C0003B6A9A42054B1B685B6AFB63044B1B68C2
:1025D0005B6A7B6300F034FDF86264E75001002021
:1025E0009801002030C100083CC1000880B582B0CD
:1025F00000AF78600D4B1B68DA680C4B1B6842F02B
:102600000202DA6001224FF40051094801F0A0F8FB
:10261000012005F0A0FB00224FF40051044801F016
:1026200097F80A2005F097FBECE700BFE0010020D7
:10263000000C02400000000090B585B000AF78604B
:1026400014224549454804F0DDFA142008F056FAF2
:102650000346BB604249404808F07EFB0346BB602E
:102660004049B868FDF7B4FD0346002B03D13E4B4B
:1026700001221A7002E03C4B00221A7038490020F7
:1026800008F06AFB0346BB603849B868FDF7A0FD57
:102690000346002B22D13249002008F05DFB03469F
:1026A000BB603349B868FDF793FD0346002B06D1A4
:1026B0002D4B1B785A2200211846FFF771FA2D493D
:1026C000B868FDF785FD0346002B28D1264B1B7803
:1026D0005A2201211846FFF763FA20E02649B8681C
:1026E000FDF776FD0346002B19D11D49002008F0A7
:1026F00033FB0346BB601C4B1C78B86808F0D0F96C
:1027000003461846FDF716FF02460B4643EC122B14
:1027100020469FED0D1B9FED0E0BFFF7C9F8002320
:10272000FB600AE00C4AFB6813441B782021184622
:1027300008F0F2FAFB680133FB60FB68132BF1DD54
:10274000642005F008FB7BE7000000000088B34030
:10275000000000000094B140D00200207002002070
:1027600048C100084CC100082000002054C10008E6
:102770005CC1000864C100086CC100082DE9B04FBD
:1027800088B000AF78610023FB7700F059FCB86196
:10279000FFF7FAFC354B1B88B3F57A7F0CD2334B2D
:1027A0001B8801339AB2314B1A80314B314A92E87F
:1027B0000300186004331980FFF79CFC2D4BB3F91C
:1027C00004301A462C492D4808F0A6FA2B4A142149
:1027D000002008F0A7F8274BB3F904301946284B1E
:1027E000D3E900231346CB1A002BB8BF5B42322B30
:1027F00037DD204BB3F904301946214BD3E90023D0
:102800001346CB1A002BB8BF5B42DA1798469146A5
:102810001C4BD3E9002318EB0201B96049EB030319
:10282000FB60184BD7E90212C3E90012114BB3F950
:1028300004301BB2DA179A469346114BD3E90023B2
:10284000BAEB02046BEB03050F4BD3E90023A1188D
:10285000396045EB03037B60D7E900230A49C1E9EE
:102860000023192005F077FA94E700BF5E030020EB
:10287000480300205803002074C1000830030020E2
:1028800068030020600300207003002080B400AFC4
:1028900072B600BFFEE7000080B582B000AF002333
:1028A0007B60124B5B6C114A43F4804353640F4BC3
:1028B0005B6C03F480437B607B6800233B600B4BC5
:1028C0001B6C0A4A43F080531364084B1B6C03F0E3
:1028D00080533B603B6800220F216FF0010000F045
:1028E000BAFC00BF0837BD4680BD00BF00380240BB
:1028F00080B58AB000AF786007F1140300221A6037
:102900005A609A60DA601A617B681B68194A9342C0
:102910002CD100233B61184B1B6B174A43F0020379
:102920001363154B1B6B03F002033B613B694FF4D0
:1029300040737B611223BB610023FB6103233B6275
:1029400004237B6207F1140319460C4800F04CFD88
:102950000023FB60084B1B6C074A43F4001313640D
:10296000054B1B6C03F40013FB60FB6800BF2837AA
:10297000BD4680BD005400400038024000040240C3
:1029800080B58CB000AF786007F11C0300221A609C
:102990005A609A60DA601A617B681B68404A934209
:1029A0000ED10023BB613F4B5B6C3E4A43F00103F9
:1029B00053643C4B5B6C03F00103BB61BB696BE090
:1029C0007B681B68384A934235D100237B61354BC5
:1029D0001B6C344A43F004031364324B1B6C03F04A
:1029E00004037B617B6900233B612E4B1B6B2D4AEB
:1029F00043F0080313632B4B1B6B03F008033B618D
:102A00003B694FF48053FB6102233B6200237B62EE
:102A10000023BB620223FB6207F11C031946234813
:102A200000F0E2FC002205211E2000F014FC1E2014
:102A300000F02DFC30E07B681B681D4A93422BD1CF
:102A40000023FB60174B5B6C164A43F00203536490
:102A5000144B5B6C03F00203FB60FB680023BB605C
:102A6000104B1B6B0F4A43F0040313630D4B1B6B9E
:102A700003F00403BB60BB68C023FB6102233B621D
:102A800000237B620023BB620323FB6207F11C036C
:102A90001946084800F0A8FC00BF3037BD4680BD8D
:102AA000000001400038024000080040000C0240D5
:102AB000000401400008024080B58CB000AF78608F
:102AC00007F11C0300221A605A609A60DA601A61EA
:102AD0007B681B68B3F1804F4BD10023BB613F4B38
:102AE0001B6C3E4A43F0010313643C4B1B6C03F028
:102AF0000103BB61BB6900237B61384B1B6B374A09
:102B000043F001031363354B1B6B03F001037B613F
:102B10007B6900233B61314B1B6B304A43F002035E
:102B200013632E4B1B6B03F002033B613B694FF4B5
:102B30000043FB6102233B6200237B620023BB62F4
:102B40000123FB6207F11C031946254800F04CFCE9
:102B50000823FB6102233B6200237B620023BB62EC
:102B60000123FB6207F11C0319461E4800F03CFCE0
:102B700030E07B681B681C4A93422BD10023FB602A
:102B8000164B1B6C154A43F002031364134B1B6C6A
:102B900003F00203FB60FB680023BB600F4B1B6B61
:102BA0000E4A43F0010313630C4B1B6B03F001034C
:102BB000BB60BB68C023FB6102233B6200237B62D6
:102BC0000023BB620223FB6207F11C031946044881
:102BD00000F00AFC00BF3037BD4680BD003802401F
:102BE00000000240000402400004004080B588B0AC
:102BF00000AF786007F10C0300221A605A609A60F7
:102C0000DA601A617B681B68124A93421ED1002366
:102C1000BB60114B1B6B104A43F0100313630E4B48
:102C20001B6B03F01003BB60BB684FF48043FB6079
:102C300002233B6100237B610023BB610123FB6115
:102C400007F10C031946054800F0CEFB00BF203702
:102C5000BD4680BD00000140003802400010024027
:102C600080B58AB000AF786007F1140300221A60C3
:102C70005A609A60DA601A617B681B681D4A934249
:102C800034D100233B611C4B1B6C1B4A43F4802353
:102C90001364194B1B6C03F480233B613B690023D5
:102CA000FB60154B1B6B144A43F004031363124B78
:102CB0001B6B03F00403FB60FB684FF440637B6114
:102CC0000223BB610023FB6103233B6207237B627A
:102CD00007F114031946094800F086FB002205217C
:102CE000272000F0B8FA272000F0D1FA00BF2837DB
:102CF000BD4680BD00480040003802400008024048
:102D000080B400AFFEE780B400AFFEE780B400AF50
:102D1000FEE780B400AFFEE780B400AFFEE780B40A
:102D200000AF00BFBD465DF8047B704780B500AFC3
:102D300000F072F906F01CFC0346012B01D007F0ED
:102D400003FA00BF80BD000080B500AF024802F06A
:102D50007FFD00BF80BD00BFE001002080B500AF57
:102D6000024803F07FFF00BF80BD00BF700200205B
:102D700080B400AF01231846BD465DF8047B704760
:102D800080B582B000AF7860396007F08DFE0346F1
:102D900016221A604FF0FF3318460837BD4680BD33
:102DA00080B582B000AF78604FF0FF317868FFF7F0
:102DB000E7FFFEE780B586B000AFF860B9607A60E3
:102DC00000237B610AE0AFF300800146BB685A1C18
:102DD000BA60CAB21A707B6901337B617A697B6819
:102DE0009A42F0DB7B6818461837BD4680BD80B537
:102DF00086B000AFF860B9607A6000237B6109E0BB
:102E0000BB685A1CBA601B781846AFF300807B6918
:102E100001337B617A697B689A42F1DB7B681846F3
:102E20001837BD4680BD80B483B000AF78604FF0E6
:102E3000FF3318460C37BD465DF8047B704780B4FD
:102E400083B000AF786039603B684FF400525A603D
:102E5000002318460C37BD465DF8047B704780B4EC
:102E600083B000AF7860012318460C37BD465DF88B
:102E7000047B704780B485B000AFF860B9607A60B9
:102E8000002318461437BD465DF8047B70470000E8
:102E900080B586B000AF7860144A154BD31A7B61B9
:102EA0007B693B61134B1B68002B02D1114B124A0B
:102EB0001A60104B1A687B6813443A699A4207D229
:102EC00007F0F2FD03460C221A604FF0FF3309E0D1
:102ED000084B1B68FB60074B1A687B681344054A64
:102EE0001360FB6818461837BD4680BD00000220FD
:102EF00000040000B40300202057002080B400AF7D
:102F0000064BD3F88830054A43F47003C2F8883082
:102F100000BFBD465DF8047B704700BF00ED00E0D8
:102F2000DFF834D00D480E490E4A002302E0D45891
:102F3000C4500433C4188C42F9D30B4A0B4C002301
:102F400001E013600432A242FBD3FFF7D7FF07F082
:102F5000B1FDFDF795FF7047000002200000002042
:102F6000980000206CCF0008980000201C5700201B
:102F7000FEE7000080B500AF0E4B1B680D4A43F41E
:102F8000007313600B4B1B680A4A43F480631360A1
:102F9000084B1B68074A43F480731360032000F05A
:102FA0004FF90F2000F008F8FFF776FC00231846D1
:102FB00080BD00BF003C024080B582B000AF7860A9
:102FC000124B1A68124B1B7819464FF47A73B3FBF5
:102FD000F1F3B2FBF3F3184600F067F90346002B58
:102FE00001D001230EE07B680F2B0AD800227968FC
:102FF0004FF0FF3000F02FF9064A7B681360002382
:1030000000E0012318460837BD4680BD240000209B
:103010002C0000202800002080B400AF064B1B7855
:103020001A46064B1B681344044A136000BFBD4692
:103030005DF8047B704700BF2C000020B80300201F
:1030400080B400AF034B1B681846BD465DF8047B97
:10305000704700BFB803002080B584B000AF78602F
:10306000FFF7EEFFB8607B68FB60FB68B3F1FF3FE2
:1030700005D00A4B1B781A46FB681344FB6000BF5F
:10308000FFF7DEFF0246BB68D31AFA689A42F7D808
:1030900000BF00BF1037BD4680BD00BF2C00002020
:1030A00080B485B000AF78607B6803F00703FB60F5
:1030B0000C4BDB68BB60BA684FF6FF031340BB6084
:1030C000FB681A02BB68134343F0BF6343F4003349
:1030D000BB60044ABB68D36000BF1437BD465DF8CF
:1030E000047B704700ED00E080B400AF044BDB6868
:1030F0001B0A03F007031846BD465DF8047B7047C2
:1031000000ED00E080B483B000AF0346FB7197F997
:103110000730002B0BDBFB7903F01F02074997F9FF
:1031200007305B09012000FA02F241F8232000BFBA
:103130000C37BD465DF8047B704700BF00E100E03E
:1031400080B483B000AF03463960FB7197F9073054
:10315000002B0ADB3B68DAB20C4997F90730120101
:10316000D2B20B4483F800230AE03B68DAB2084984
:10317000FB7903F00F03043B1201D2B20B441A7621
:1031800000BF0C37BD465DF8047B704700E100E0EE
:1031900000ED00E080B489B000AFF860B9607A60FB
:1031A000FB6803F00703FB61FB69C3F10703042B12
:1031B00028BF0423BB61FB690433062B02D9FB69DA
:1031C000033B00E000237B614FF0FF32BB6902FA52
:1031D00003F3DA43BB681A407B699A404FF0FF3132
:1031E0007B6901FA03F3D9437B680B40134318460C
:1031F0002437BD465DF8047B7047000080B582B07F
:1032000000AF78607B68013BB3F1807F01D301237D
:103210000FE00A4A7B68013B53600F214FF0FF30FB
:10322000FFF78EFF054B00229A60044B07221A60BD
:10323000002318460837BD4680BD00BF10E000E0FF
:1032400080B582B000AF78607868FFF729FF00BFD3
:103250000837BD4680BD80B586B000AF0346B96073
:103260007A60FB7300237B61FFF73EFF78617A6829
:10327000B9687869FFF78EFF024697F90F3011465B
:103280001846FFF75DFF00BF1837BD4680BD80B50B
:1032900082B000AF0346FB7197F907301846FFF77D
:1032A00031FF00BF0837BD4680BD80B582B000AF9A
:1032B00078607868FFF7A2FF034618460837BD46D6
:1032C00080BD80B584B000AF78607B689B6DFB608B
:1032D000FFF7B6FEB8607B6893F83530DBB2022B9F
:1032E00008D07B6880225A657B68002283F83420EE
:1032F000012352E07B681B681A687B681B6822F018
:1033000016021A607B681B685A697B681B6822F08A
:1033100080025A617B681B6C002B03D17B689B6C1D
:10332000002B07D07B681B681A687B681B6822F03B
:1033300008021A607B681B681A687B681B6822F0A9
:1033400001021A6013E0FFF77BFE0246BB68D31A46
:10335000052B0CD97B6820225A657B68032283F8F1
:1033600035207B68002283F83420032315E07B6836
:103370001B681B6803F00103002BE4D17B68DB6D45
:103380003F229A40FB689A607B68012283F83520CF
:103390007B68002283F83420002318461037BD468E
:1033A00080BD80B483B000AF78607B6893F835301F
:1033B000DBB2022B04D07B6880225A6501230CE02B
:1033C0007B68052283F835207B681B681A687B6858
:1033D0001B6822F001021A60002318460C37BD4614
:1033E0005DF8047B7047000080B489B000AF78605E
:1033F000396000237B6100233B610023BB61002314
:10340000FB616BE10122FB6902FA03F37B613B681C
:103410001B687A6913403B613A697B699A4240F0C4
:103420005A813B685B6803F00303012B05D03B68BE
:103430005B6803F00303022B30D17B689B68BB61A0
:10344000FB695B00032202FA03F3DB43BA69134012
:10345000BB613B68DA68FB695B0002FA03F3BA6997
:103460001343BB617B68BA699A607B685B68BB6128
:103470000122FB6902FA03F3DB43BA691340BB6123
:103480003B685B681B0903F00102FB6902FA03F366
:10349000BA691343BB617B68BA695A603B685B6871
:1034A00003F00303032B17D07B68DB68BB61FB6968
:1034B0005B00032202FA03F3DB43BA691340BB61EA
:1034C0003B689A68FB695B0002FA03F3BA6913432D
:1034D000BB617B68BA69DA603B685B6803F0030331
:1034E000022B23D1FB69DA087B68083253F82230BB
:1034F000BB61FB6903F007039B000F2202FA03F391
:10350000DB43BA691340BB613B681A69FB6903F08E
:1035100007039B0002FA03F3BA691343BB61FB691B
:10352000DA087B680832B96943F822107B681B68A7
:10353000BB61FB695B00032202FA03F3DB43BA6958
:103540001340BB613B685B6803F00302FB695B00EF
:1035500002FA03F3BA691343BB617B68BA691A6064
:103560003B685B6803F44033002B00F0B480002319
:10357000FB60604B5B6C5F4A43F4804353645D4B7C
:103580005B6C03F48043FB60FB685B4AFB699B0850
:10359000023352F82330BB61FB6903F003039B0045
:1035A0000F2202FA03F3DB43BA691340BB617B6865
:1035B000524A93422BD07B68514A934225D07B6874
:1035C000504A93421FD07B684F4A934219D07B6880
:1035D0004E4A934213D07B684D4A93420DD07B688C
:1035E0004C4A934207D07B684B4A934201D1072350
:1035F0000EE008230CE006230AE0052308E004237C
:1036000006E0032304E0022302E0012300E000239C
:10361000FA6902F0030292009340BA691343BB6156
:103620003549FB699B080233BA6941F823203B4BBB
:103630009B68BB613B69DB43BA691340BB613B6874
:103640005B6803F48013002B03D0BA693B69134312
:10365000BB61324ABB699360304BDB68BB613B693D
:10366000DB43BA691340BB613B685B6803F400133A
:10367000002B03D0BA693B691343BB61274ABB697E
:10368000D360264B5B68BB613B69DB43BA6913407F
:10369000BB613B685B6803F40033002B03D0BA695D
:1036A0003B691343BB611D4ABB6953601B4B1B68DD
:1036B000BB613B69DB43BA691340BB613B685B6834
:1036C00003F48033002B03D0BA693B691343BB6119
:1036D000124ABB691360FB690133FB61FB690F2B65
:1036E0007FF690AE00BF00BF2437BD465DF8047B77
:1036F000704700BF0038024000380140000002401F
:103700000004024000080240000C02400010024089
:103710000014024000180240001C0240003C01401E
:1037200080B485B000AF78600B467B807B681A69F7
:103730007B881340002B02D00123FB7301E00023A0
:10374000FB73FB7B18461437BD465DF8047B70475E
:1037500080B483B000AF78600B467B8013467B70EB
:103760007B78002B03D07A887B689A6103E07B88A2
:103770001A047B689A6100BF0C37BD465DF8047B74
:103780007047000080B584B000AF78607B68002B84
:1037900001D101232BE17B6893F83D30DBB2002B94
:1037A00006D17B68002283F83C207868FFF7A0F8F8
:1037B0007B68242283F83D207B681B681A687B683D
:1037C0001B6822F001021A607B681B681A687B681C
:1037D0001B6842F400421A607B681B681A687B68A9
:1037E0001B6822F400421A6001F0E4FBF8607B6879
:1037F0005B68814A934207D8FB68804A934294BF32
:1038000001230023DBB206E0FB687D4A934294BFAC
:1038100001230023DBB2002B01D00123E7E0FB688A
:10382000784AA2FB03239B0CBB607B681B685B6828
:1038300023F03F017B681B68BA680A435A607B68C3
:103840001B681B6A23F03F017B685B686A4A9342EE
:1038500002D8BB68013309E0BB684FF4967202FBE3
:1038600003F3694AA2FB03239B0901337A681268B8
:103870000B4313627B681B68DB6923F44F4222F021
:10388000FF027B685B685C498B4219D8FB68591E54
:103890007B685B685B00B1FBF3F3591C40F6FC737B
:1038A0000B40002B0AD0FB68591E7B685B685B00ED
:1038B000B1FBF3F30133C3F30B0351E004234FE0F7
:1038C0007B689B68002B11D1FB68581E7B68596888
:1038D0000B465B000B44B0FBF3F30133C3F30B0364
:1038E000002B0CBF01230023DBB212E0FB68581E43
:1038F0007B6859680B469B000B4499000B44B0FB56
:10390000F3F30133C3F30B03002B0CBF012300239C
:10391000DBB2002B01D0012322E07B689B68002BE7
:103920000ED1FB68581E7B6859680B465B000B4440
:10393000B0FBF3F30133C3F30B0343F400430FE095
:10394000FB68581E7B6859680B469B000B44990026
:103950000B44B0FBF3F30133C3F30B0343F44043D5
:10396000796809681343CB617B681B681B6823F087
:10397000C0017B68DA697B681B6A1A437B681B6835
:103980000A431A607B681B689B6823F4034323F097
:10399000FF037A6811697A68D26811437A681268FD
:1039A0000B4393607B681B68DB6823F0FF017B6837
:1039B0005A697B689B691A437B681B680A43DA6013
:1039C0007B681B681A687B681B6842F001021A60FA
:1039D0007B6800221A647B68202283F83D207B6884
:1039E00000221A637B68002283F83E2000231846D9
:1039F0001037BD4680BD00BFA08601007F841E0039
:103A0000FF083D0083DE1B43D34D621080B588B0B4
:103A100002AFF860084611461A4603467B810B4602
:103A20003B811346FB80FFF70BFB7861FB6893F843
:103A30003D30DBB2202B40F0D9807B690093192305
:103A400001226D49F86800F07FFC0346002B01D08D
:103A50000223CCE0FB6893F83C30012B01D1022318
:103A6000C5E0FB68012283F83C20FB681B681B68EB
:103A700003F00103012B07D0FB681B681A68FB6881
:103A80001B6842F001021A60FB681B681A68FB6839
:103A90001B6822F400621A60FB68212283F83D2033
:103AA000FB68402283F83E20FB6800221A64FB6812
:103AB0003A6A5A62FB68BA8C5A85FB685B8D9AB287
:103AC000FB681A85FB684D4ADA62F8883A89798979
:103AD0007B690193BB6A00930346F86800F0B6FA6D
:103AE0000346002B52D0012381E07A69B96AF86855
:103AF00000F000FD0346002B0DD0FB681B6C042B6F
:103B000007D1FB681B681A68FB681B6842F40072E7
:103B10001A6001236BE0FB685B6A1A78FB681B681C
:103B20001A61FB685B6A5A1CFB685A62FB681B8D52
:103B3000013B9AB2FB681A85FB685B8D9BB2013B27
:103B40009AB2FB685A85FB681B685B6903F0040343
:103B5000042B1BD1FB681B8D002B17D0FB685B6A05
:103B60001A78FB681B681A61FB685B6A5A1CFB6861
:103B70005A62FB681B8D013B9AB2FB681A85FB6891
:103B80005B8D9BB2013B9AB2FB685A85FB681B8D2B
:103B9000002BAAD17A69B96AF86800F0ECFC0346F8
:103BA000002B0DD0FB681B6C042B07D1FB681B6836
:103BB0001A68FB681B6842F400721A60012316E061
:103BC000FB681B681A68FB681B6842F400721A6085
:103BD000FB68202283F83D20FB68002283F83E200A
:103BE000FB68002283F83C20002300E002231846F3
:103BF0001837BD4680BD00BF020010000000FFFF67
:103C000080B58CB002AFF860084611461A460346EC
:103C10007B810B463B811346FB80FFF711FA7862EC
:103C2000FB6893F83D30DBB2202B40F008827B6AC2
:103C30000093192301227B49F86800F085FB0346B5
:103C4000002B01D00223FBE1FB6893F83C30012BF1
:103C500001D10223F4E1FB68012283F83C20FB68D8
:103C60001B681B6803F00103012B07D0FB681B686E
:103C70001A68FB681B6842F001021A60FB681B6847
:103C80001A68FB681B6822F400621A60FB68222233
:103C900083F83D20FB68402283F83E20FB68002229
:103CA0001A64FB683A6B5A62FB68BA8E5A85FB68E5
:103CB0005B8D9AB2FB681A85FB685B4ADA62F8880A
:103CC0003A8979897B6A0193BB6B00930346F86854
:103CD00000F052FA0346002B01D00123B0E1FB684B
:103CE0001B8D002B13D100233B62FB681B685B69B3
:103CF0003B62FB681B689B693B623B6AFB681B6815
:103D00001A68FB681B6842F400721A6084E1FB6861
:103D10001B8D012B1BD1FB681B681A68FB681B6895
:103D200022F480621A600023FB61FB681B685B69F8
:103D3000FB61FB681B689B69FB61FB69FB681B6897
:103D40001A68FB681B6842F400721A6064E1FB6841
:103D50001B8D022B1BD1FB681B681A68FB681B6854
:103D600022F480621A60FB681B681A68FB681B6893
:103D700042F400621A600023BB61FB681B685B6948
:103D8000BB61FB681B689B69BB61BB6944E10023A5
:103D90007B61FB681B685B697B61FB681B689B69D7
:103DA0007B617B6938E1FB681B8D032B00F2F1809E
:103DB000FB681B8D012B23D17A6AB96BF86800F080
:103DC0001BFC0346002B01D0012339E1FB681B6873
:103DD0001A69FB685B6AD2B21A70FB685B6A5A1C8C
:103DE000FB685A62FB681B8D013B9AB2FB681A851F
:103DF000FB685B8D9BB2013B9AB2FB685A850BE175
:103E0000FB681B8D022B4ED17B6A0093BB6B00229B
:103E10000649F86800F098FA0346002B08D0012301
:103E20000EE100BF020010000000FFFF04000100CF
:103E3000FB681B681A68FB681B6842F400721A6012
:103E4000FB681B681A69FB685B6AD2B21A70FB6870
:103E50005B6A5A1CFB685A62FB681B8D013B9AB275
:103E6000FB681A85FB685B8D9BB2013B9AB2FB68CD
:103E70005A85FB681B681A69FB685B6AD2B21A70C4
:103E8000FB685B6A5A1CFB685A62FB681B8D013B2E
:103E90009AB2FB681A85FB685B8D9BB2013B9AB2B4
:103EA000FB685A85B8E07B6A0093BB6B00226649C9
:103EB000F86800F049FA0346002B01D00123BFE067
:103EC000FB681B681A68FB681B6822F480621A6032
:103ED000FB681B681A69FB685B6AD2B21A70FB68E0
:103EE0005B6A5A1CFB685A62FB681B8D013B9AB2E5
:103EF000FB681A85FB685B8D9BB2013B9AB2FB683D
:103F00005A857B6A0093BB6B00224F49F86800F02A
:103F10001BFA0346002B01D0012391E0FB681B68CC
:103F20001A68FB681B6842F400721A60FB681B6821
:103F30001A69FB685B6AD2B21A70FB685B6A5A1C2A
:103F4000FB685A62FB681B8D013B9AB2FB681A85BD
:103F5000FB685B8D9BB2013B9AB2FB685A85FB689C
:103F60001B681A69FB685B6AD2B21A70FB685B6AED
:103F70005A1CFB685A62FB681B8D013B9AB2FB68B6
:103F80001A85FB685B8D9BB2013B9AB2FB685A8530
:103F900042E07A6AB96BF86800F02EFB0346002B0A
:103FA00001D001234CE0FB681B681A69FB685B6A5F
:103FB000D2B21A70FB685B6A5A1CFB685A62FB68D3
:103FC0001B8D013B9AB2FB681A85FB685B8D9BB227
:103FD000013B9AB2FB685A85FB681B685B6903F07A
:103FE0000403042B18D1FB681B681A69FB685B6A21
:103FF000D2B21A70FB685B6A5A1CFB685A62FB6893
:104000001B8D013B9AB2FB681A85FB685B8D9BB2E6
:10401000013B9AB2FB685A85FB681B8D002B7FF42D
:10402000C2AEFB68202283F83D20FB68002283F8A3
:104030003E20FB68002283F83C20002300E002239E
:1040400018462837BD4680BD0400010080B588B001
:1040500002AFF860084611461A4603467B810B46BC
:104060003B811346FB80FB681B681A68FB681B6872
:1040700042F480721A607B6A00933B6A00224FF020
:104080000111F86800F060F90346002B0DD0FB68C1
:104090001B681B6803F48073B3F5807F03D1FB6852
:1040A0004FF400721A6403235FE07B89DBB21A4687
:1040B000FB681B6802F0FE021A617B6A3A6A2D49AE
:1040C000F86800F098F90346002B01D001234CE07A
:1040D00000237B61FB681B685B697B61FB681B6875
:1040E0009B697B617B697A6A396AF86800F002FA39
:1040F0000346002B0DD0FB681B6C042B07D1FB681B
:104100001B681A68FB681B6842F400721A6001237E
:104110002BE0FB88012B05D13B89DAB2FB681B68D9
:104120001A6121E03B891B0A9BB2DAB2FB681B686B
:104130001A617A6A396AF86800F0DCF90346002BE4
:104140000DD0FB681B6C042B07D1FB681B681A6839
:10415000FB681B6842F400721A60012305E03B898A
:10416000DAB2FB681B681A61002318461837BD468F
:1041700080BD00BF0200010080B588B002AFF860CA
:10418000084611461A4603467B810B463B8113467F
:10419000FB80FB681B681A68FB681B6842F480623E
:1041A0001A60FB681B681A68FB681B6842F480721F
:1041B0001A607B6A00933B6A00224FF00111F86895
:1041C00000F0C2F80346002B0DD0FB681B681B688B
:1041D00003F48073B3F5807F03D1FB684FF4007262
:1041E0001A640323AAE07B89DBB21A46FB681B68CA
:1041F00002F0FE021A617B6A3A6A5249F86800F0DE
:10420000FAF80346002B01D0012397E000237B61DD
:10421000FB681B685B697B61FB681B689B697B6152
:104220007B697A6A396AF86800F064F90346002B02
:104230000DD0FB681B6C042B07D1FB681B681A6848
:10424000FB681B6842F400721A60012376E0FB8869
:10425000012B05D13B89DAB2FB681B681A6121E0AA
:104260003B891B0A9BB2DAB2FB681B681A617A6A47
:10427000396AF86800F03EF90346002B0DD0FB6860
:104280001B6C042B07D1FB681B681A68FB681B6852
:1042900042F400721A60012350E03B89DAB2FB68F5
:1042A0001B681A617A6A396AF86800F023F90346D4
:1042B000002B0DD0FB681B6C042B07D1FB681B681F
:1042C0001A68FB681B6842F400721A60012335E02B
:1042D000FB681B681A68FB681B6842F480721A60EE
:1042E0007B6A00933B6A00224FF00111F86800F0EE
:1042F0002BF80346002B0DD0FB681B681B6803F4EA
:104300008073B3F5807F03D1FB684FF400721A64A9
:10431000032313E07B89DBB243F00103DAB2FB68CD
:104320001B681A617B6A3A6A0649F86800F063F80C
:104330000346002B01D0012300E000231846183764
:10434000BD4680BD0200010080B584B000AFF860BA
:10435000B9603B601346FB7125E03B68B3F1FF3F5A
:1043600021D0FEF76DFE0246BB69D31A3A689A4225
:1043700002D33B68002B16D1FB6800221A63FB684E
:10438000202283F83D20FB68002283F83E20FB6852
:104390001B6C43F02002FB681A64FB68002283F860
:1043A0003C20012323E0BB681B0CDBB2012B0DD1A9
:1043B000FB681B685B69DA43BB6813409BB2002B48
:1043C0000CBF01230023DBB21A460CE0FB681B681C
:1043D0009B69DA43BB6813409BB2002B0CBF0123DF
:1043E0000023DBB21A46FB799A42B6D00023184666
:1043F0001037BD4680BD80B584B000AFF860B960AD
:104400007A603B6051E0FB681B685B6903F4806382
:10441000B3F5806F23D1FB681B681A68FB681B68C3
:1044200042F400721A60FB681B686FF480625A6184
:10443000FB6800221A63FB68202283F83D20FB689A
:10444000002283F83E20FB681B6C43F00402FB68EB
:104450001A64FB68002283F83C20012346E07B6855
:10446000B3F1FF3F21D0FEF7EBFD02463B68D31AC4
:104470007A689A4202D37B68002B16D1FB6800222F
:104480001A63FB68202283F83D20FB68002283F832
:104490003E20FB681B6C43F02002FB681A64FB683B
:1044A000002283F83C20012320E0BB681B0CDBB218
:1044B000012B0CD1FB681B685B69DA43BB681340B6
:1044C0009BB2002B14BF01230023DBB20BE0FB687F
:1044D0001B689B69DA43BB6813409BB2002B14BF77
:1044E00001230023DBB2002B8DD1002318461037A7
:1044F000BD4680BD80B584B000AFF860B9607A6019
:104500002DE0F86800F0CEF80346002B01D001231F
:104510002DE0BB68B3F1FF3F21D0FEF791FD0246CD
:104520007B68D31ABA689A4202D3BB68002B16D1B3
:10453000FB6800221A63FB68202283F83D20FB6899
:10454000002283F83E20FB681B6C43F02002FB68CE
:104550001A64FB68002283F83C20012307E0FB6813
:104560001B685B6903F08003802BCAD100231846C7
:104570001037BD4680BD80B584B000AFF860B9602B
:104580007A602DE0F86800F08DF80346002B01D02A
:1045900001232DE0BB68B3F1FF3F21D0FEF750FDB2
:1045A00002467B68D31ABA689A4202D3BB68002BD2
:1045B00016D1FB6800221A63FB68202283F83D2095
:1045C000FB68002283F83E20FB681B6C43F020024E
:1045D000FB681A64FB68002283F83C20012307E093
:1045E000FB681B685B6903F00403042BCAD100233A
:1045F00018461037BD4680BD80B584B000AFF86066
:10460000B9607A6042E0FB681B685B6903F01003E5
:10461000102B19D1FB681B686FF010025A61FB6800
:1046200000221A63FB68202283F83D20FB680022E9
:1046300083F83E20FB681A6CFB681A64FB68002252
:1046400083F83C20012329E0FEF7FAFC02467B6850
:10465000D31ABA689A4202D3BB68002B16D1FB6802
:1046600000221A63FB68202283F83D20FB680022A9
:1046700083F83E20FB681B6C43F02002FB681A6441
:10468000FB68002283F83C20012307E0FB681B68DD
:104690005B6903F04003402BB5D100231846103767
:1046A000BD4680BD80B483B000AF78607B681B6876
:1046B0005B6903F48063B3F5806F1BD17B681B6873
:1046C0006FF480625A617B6800221A637B68202243
:1046D00083F83D207B68002283F83E207B681B6CBA
:1046E00043F004027B681A647B68002283F83C2054
:1046F000012300E0002318460C37BD465DF8047B1B
:104700007047000080B483B000AF064B01221A60EE
:10471000054B1B687B607B6800BF0C37BD465DF8AE
:10472000047B704720000E420070004080B483B0CC
:1047300000AF064B00221A60054B1B687B607B684C
:1047400000BF0C37BD465DF8047B704720000E4269
:104750000070004080B586B000AF78607B68002BA9
:1047600001D1012367E27B681B6803F00103002B82
:1047700075D0884B9B6803F00C03042B0CD0854B41
:104780009B6803F00C03082B12D1824B5B6803F487
:104790008003B3F5800F0BD17E4B1B6803F400330D
:1047A000002B5BD07B685B68002B57D1012342E272
:1047B0007B685B68B3F5803F06D1764B1B68754A12
:1047C00043F4803313601DE07B685B68B3F5A02F72
:1047D0000CD1704B1B686F4A43F4802313606D4B00
:1047E0001B686C4A43F4803313600BE0694B1B6811
:1047F000684A23F480331360664B1B68654A23F4D0
:10480000802313607B685B68002B13D0FEF718FCD5
:10481000386108E0FEF714FC02463B69D31A642BAA
:1048200001D9032307E25B4B1B6803F40033002B21
:10483000F0D014E0FEF704FC386108E0FEF700FC5D
:1048400002463B69D31A642B01D90323F3E1514B90
:104850001B6803F40033002BF0D100E000BF7B683D
:104860001B6803F00203002B63D04A4B9B6803F0E4
:104870000C03002B0BD0474B9B6803F00C03082B59
:104880001CD1444B5B6803F48003002B16D1414BD1
:104890001B6803F00203002B05D07B68DB68012B4B
:1048A00001D00123C7E13B4B1B6823F0F8027B6872
:1048B0001B69DB00374913430B603AE07B68DB6818
:1048C000002B20D0344B01221A60FEF7B9FB38616F
:1048D00008E0FEF7B5FB02463B69D31A022B01D96B
:1048E0000323A8E12B4B1B6803F00203002BF0D03D
:1048F000284B1B6823F0F8027B681B69DB00254905
:1049000013430B6015E0244B00221A60FEF798FB5E
:10491000386108E0FEF794FB02463B69D31A022B8C
:1049200001D9032387E11B4B1B6803F00203002B13
:10493000F0D17B681B6803F00803002B36D07B683E
:104940005B69002B16D0154B01221A60FEF778FB2D
:10495000386108E0FEF774FB02463B69D31A022B6C
:1049600001D9032367E10B4B5B6F03F00203002BBC
:10497000F0D01BE0094B00221A60FEF761FB3861A2
:104980000EE0FEF75DFB02463B69D31A022B07D906
:10499000032350E10038024000004742800E4742A6
:1049A000884B5B6F03F00203002BEAD17B681B6826
:1049B00003F00403002B00F097800023FB75814B6C
:1049C0001B6C03F08053002B0FD10023BB607D4B89
:1049D0001B6C7C4A43F0805313647A4B1B6C03F0CE
:1049E0008053BB60BB680123FB75774B1B6803F4E6
:1049F0008073002B18D1744B1B68734A43F4807387
:104A00001360FEF71DFB386108E0FEF719FB024654
:104A10003B69D31A022B01D903230CE16A4B1B68B3
:104A200003F48073002BF0D07B689B68012B06D1C8
:104A3000644B1B6F634A43F0010313671CE07B6800
:104A40009B68052B0CD15F4B1B6F5E4A43F0040340
:104A500013675C4B1B6F5B4A43F0010313670BE06A
:104A6000584B1B6F574A23F001031367554B1B6FBD
:104A7000544A23F0040313677B689B68002B15D00E
:104A8000FEF7DEFA38610AE0FEF7DAFA02463B6921
:104A9000D31A41F28832934201D90323CBE0494B28
:104AA0001B6F03F00203002BEED014E0FEF7C8FAF0
:104AB00038610AE0FEF7C4FA02463B69D31A41F2B4
:104AC0008832934201D90323B5E03E4B1B6F03F0BC
:104AD0000203002BEED1FB7D012B05D1394B1B6C62
:104AE000384A23F0805313647B689B69002B00F0E5
:104AF000A180344B9B6803F00C03082B5CD07B68CF
:104B00009B69022B41D1314B00221A60FEF798FAC3
:104B1000386108E0FEF794FA02463B69D31A022B8B
:104B200001D9032387E0274B1B6803F00073002B98
:104B3000F0D17B68DA697B681B6A1A437B685B6A21
:104B40009B011A437B689B6A5B08013B1B041A4369
:104B50007B68DB6A1B061B4913434B601B4B01221E
:104B60001A60FEF76DFA386108E0FEF769FA02464E
:104B70003B69D31A022B01D903235CE0114B1B685C
:104B800003F00073002BF0D054E0104B00221A60A9
:104B9000FEF756FA386108E0FEF752FA02463B6922
:104BA000D31A022B01D9032345E0064B1B6803F0FF
:104BB0000073002BF0D13DE07B689B69012B07D18E
:104BC000012338E000380240007000406000474296
:104BD0001B4B5B68FB607B689B69012B28D0FB68E3
:104BE00003F480027B68DB699A4221D1FB6803F001
:104BF0003F027B681B6A9A421AD1FA6847F6C07373
:104C000013407A68526A9201934211D1FB6803F40F
:104C100040327B689B6A5B08013B1B049A4207D1C8
:104C2000FB6803F070627B68DB6A1B069A4201D066
:104C3000012300E0002318461837BD4680BD00BFA1
:104C40000038024080B584B000AF786039607B687E
:104C5000002B01D10123CCE0684B1B6803F0070354
:104C60003A689A420CD9654B3A68D2B21A70634BD3
:104C70001B6803F007033A689A4201D00123B8E0A9
:104C80007B681B6803F00203002B20D07B681B6845
:104C900003F00403002B05D0594B9B68584A43F49A
:104CA000E05393607B681B6803F00803002B05D07A
:104CB000534B9B68524A43F460439360504B9B684C
:104CC00023F0F0027B689B684D4913438B607B683F
:104CD0001B6803F00103002B44D07B685B68012B49
:104CE00007D1474B1B6803F40033002B19D1012374
:104CF0007FE07B685B68022B03D07B685B68032BDB
:104D000007D13F4B1B6803F00073002B09D101232F
:104D10006FE03B4B1B6803F00203002B01D1012322
:104D200067E0374B9B6823F003027B685B6834497C
:104D300013438B60FEF784F9F8600AE0FEF780F910
:104D40000246FB68D31A41F28832934201D9032309
:104D50004FE02B4B9B6803F00C027B685B689B0069
:104D60009A42EBD1254B1B6803F007033A689A423D
:104D70000CD2224B3A68D2B21A70204B1B6803F057
:104D800007033A689A4201D0012332E07B681B682E
:104D900003F00403002B08D0194B9B6823F4E05266
:104DA0007B68DB68164913438B607B681B6803F0E4
:104DB0000803002B09D0124B9B6823F460427B68E8
:104DC0001B69DB000E4913438B6000F021F802469B
:104DD0000B4B9B681B0903F00F030A49CB5C22FABB
:104DE00003F3094A1360094B1B681846FEF7E4F801
:104DF000002318461037BD4680BD00BF003C02406E
:104E00000038024094C2000824000020280000203E
:104E10002DE9B04F90B000AF00237B630023FB630C
:104E200000233B630023BB63594B9B6803F00C03D7
:104E3000082B0DD0082B00F2A180002B02D0042BF0
:104E400003D09BE0534BBB639BE0534BBB6398E0A9
:104E50004F4B5B6803F03F037B634D4B5B6803F490
:104E60008003002B28D04A4B5B689B0900223B62E1
:104E70007A623B6AC3F308000021474B03FB01F24F
:104E8000002300FB03F31344434AA0FB0212FA621F
:104E90000A46BA62FA6A1344FB627B6B0022BB616A
:104EA000FA61D7E90623D7E90A01FBF767FE024654
:104EB0000B461346FB6353E0354B5B689B090022AE
:104EC0003B617A613B69C3F3080A4FF0000B52461D
:104ED0005B464FF000004FF00001590141EAD261FA
:104EE000500102460B46B2EB0A0863EB0B094FF088
:104EF00000024FF000034FEA891343EA98634FEA38
:104F00008812B2EB080463EB09054FF000024FF082
:104F10000003EB0043EA5473E20014461D4614EB11
:104F20000A033B6045EB0B037B604FF000024FF040
:104F30000003D7E9004529468B02214643EA9153F5
:104F400021468A02104619467B6B0022BB60FA603C
:104F5000D7E90223FBF712FE02460B461346FB631A
:104F60000B4B5B681B0C03F0030301335B003B63DB
:104F7000FA6B3B6BB2FBF3F3BB6302E0054BBB6325
:104F800000BFBB6B18464037BD46BDE8B08F00BFC1
:104F9000003802400024F40040787D0180B400AF66
:104FA000034B1B681846BD465DF8047B704700BF85
:104FB0002400002080B500AFFFF7F0FF0246054B4C
:104FC0009B689B0A03F007030349CB5C22FA03F3B7
:104FD000184680BD00380240A4C2000880B500AF6A
:104FE000FFF7DCFF0246054B9B685B0B03F00703F2
:104FF0000349CB5C22FA03F3184680BD0038024017
:10500000A4C2000880B582B000AF78607B68002B36
:1050100001D1012341E07B6893F83D30DBB2002BE6
:1050200006D17B68002283F83C207868FDF7A8FC55
:105030007B68022283F83D207B681A687B68043312
:105040001946104600F09EFF7B68012283F8462037
:105050007B68012283F83E207B68012283F83F2091
:105060007B68012283F840207B68012283F841207D
:105070007B68012283F842207B68012283F8432069
:105080007B68012283F844207B68012283F8452055
:105090007B68012283F83D20002318460837BD466F
:1050A00080BD80B582B000AF78607B68002B01D1F5
:1050B000012341E07B6893F83D30DBB2002B06D141
:1050C0007B68002283F83C20786800F039F87B6820
:1050D000022283F83D207B681A687B6804331946F6
:1050E000104600F04FFF7B68012283F846207B6862
:1050F000012283F83E207B68012283F83F207B68F1
:10510000012283F840207B68012283F841207B68DC
:10511000012283F842207B68012283F843207B68C8
:10512000012283F844207B68012283F845207B68B4
:10513000012283F83D20002318460837BD4680BD74
:1051400080B483B000AF786000BF0C37BD465DF817
:10515000047B704780B584B000AF786039603B68ED
:10516000002B09D17B6893F83E30DBB2012B14BFD2
:1051700001230023DBB222E03B68042B09D17B68CA
:1051800093F83F30DBB2012B14BF01230023DBB2C5
:1051900015E03B68082B09D17B6893F84030DBB2FF
:1051A000012B14BF01230023DBB208E07B6893F8D6
:1051B0004130DBB2012B14BF01230023DBB2002BF3
:1051C00001D001237CE03B68002B04D17B680222E4
:1051D00083F83E2013E03B68042B04D17B68022255
:1051E00083F83F200BE03B68082B04D17B68022248
:1051F00083F8402003E07B68022283F841207B682B
:105200001B6801223968184601F0D0FA7B681B68D8
:105210002D4A934204D07B681B682C4A934201D1EB
:10522000012300E00023002B07D07B681B685A6C29
:105230007B681B6842F400425A647B681B68224A00
:10524000934222D07B681B68B3F1804F1DD07B68EE
:105250001B681F4A934218D07B681B681D4A934203
:1052600013D07B681B681C4A93420ED07B681B6876
:10527000164A934209D07B681B68184A934204D0AF
:105280007B681B68164A934211D17B681B689B6838
:1052900003F00703FB60FB68062B10D07B681B68DC
:1052A0001A687B681B6842F001021A6007E07B689D
:1052B0001B681A687B681B6842F001021A600023B1
:1052C00018461037BD4680BD000001400004014073
:1052D0000004004000080040000C00400040014075
:1052E0000018004080B582B000AF78607B68002B6A
:1052F00001D1012341E07B6893F83D30DBB2002B04
:1053000006D17B68002283F83C20786800F039F8E9
:105310007B68022283F83D207B681A687B6804332F
:105320001946104600F02EFE7B68012283F84620C5
:105330007B68012283F83E207B68012283F83F20AE
:105340007B68012283F840207B68012283F841209A
:105350007B68012283F842207B68012283F8432086
:105360007B68012283F844207B68012283F8452072
:105370007B68012283F83D20002318460837BD468C
:1053800080BD80B483B000AF786000BF0C37BD46ED
:105390005DF8047B7047000080B584B000AF786092
:1053A00039600023FB733B68002B04D17B6893F8C2
:1053B0003E30DBB213E03B68042B04D17B6893F8EA
:1053C0003F30DBB20BE03B68082B04D17B6893F8DD
:1053D0004030DBB203E07B6893F84130DBB2BB7353
:1053E0003B68002B04D17B6893F84230DBB213E0BA
:1053F0003B68042B04D17B6893F84330DBB20BE0AD
:105400003B68082B04D17B6893F84430DBB203E09F
:105410007B6893F84530DBB27B73BB7B012B02D1F9
:105420007B7B012B01D00123CCE03B68002B04D116
:105430007B68022283F83E2013E03B68042B04D1F2
:105440007B68022283F83F200BE03B68082B04D1E5
:105450007B68022283F8402003E07B68022283F805
:1054600041203B68002B04D17B68022283F8422054
:1054700013E03B68042B04D17B68022283F84320AD
:105480000BE03B68082B04D17B68022283F84420A0
:1054900003E07B68022283F845203B680C2B41D84F
:1054A00001A252F823F000BFDD5400082555000882
:1054B0002555000825550008EF540008255500081B
:1054C00025550008255500080155000825550008F8
:1054D0002555000825550008135500087B681B68F2
:1054E000DA687B681B6842F00202DA601DE07B68C4
:1054F0001B68DA687B681B6842F00402DA6014E01B
:105500007B681B68DA687B681B6842F00802DA6017
:105510000BE07B681B68DA687B681B6842F010024E
:10552000DA6002E00123FB7300BFFB7B002B48D154
:105530007B681B6801223968184601F037F97B68DF
:105540001B68224A934222D07B681B68B3F1804FCC
:105550001DD07B681B681E4A934218D07B681B686D
:105560001C4A934213D07B681B681B4A93420ED09F
:105570007B681B68194A934209D07B681B68184AEC
:10558000934204D07B681B68164A934211D17B6812
:105590001B689B6803F00703BB60BB68062B10D039
:1055A0007B681B681A687B681B6842F001021A60FE
:1055B00007E07B681B681A687B681B6842F0010281
:1055C0001A60FB7B18461037BD4680BD00000140C5
:1055D0000004004000080040000C004000040140AE
:1055E000004001400018004080B586B000AF7860F0
:1055F00039607B68002B01D1012397E07B6893F829
:105600003D30DBB2002B06D17B68002283F83C20C2
:105610007868FDF751FA7B68022283F83D207B68A9
:105620001B689B687A68126823F4804323F00703A1
:1056300093607B681A687B6804331946104600F053
:10564000A1FC7B681B689B687B617B681B689B690E
:105650003B617B681B681B6AFB603B681B687A695F
:1056600013437B613B6923F4407323F003033B61E5
:105670003B689A683B689B691B0213433A69134372
:105680003B613B6923F4406323F00C033B613B69BE
:1056900023F4704323F0F0033B613B68DA683B6816
:1056A000DB691B0213433A6913433B613B681B6987
:1056B0001A013B681B6A1B0313433A6913433B619E
:1056C000FB6823F02203FB60FB6823F08803FB6088
:1056D0003B685A683B685B691B011343FA681343D4
:1056E000FB607B681B687A699A607B681B683A6913
:1056F0009A617B681B68FA681A627B68012283F8EA
:1057000046207B68012283F83E207B68012283F8D3
:105710003F207B68012283F842207B68012283F8C6
:1057200043207B68012283F83D2000231846183768
:10573000BD4680BD80B584B000AF786039607B68BD
:1057400093F83E30FB737B6893F83F30BB737B6804
:1057500093F842307B737B6893F843303B733B682C
:10576000002B10D1FB7B012B02D17B7B012B01D0C5
:10577000012369E07B68022283F83E207B680222D5
:1057800083F8422031E03B68042B10D1BB7B012B16
:1057900002D13B7B012B01D0012355E07B68022223
:1057A00083F83F207B68022283F843201DE0FB7BC7
:1057B000012B08D1BB7B012B05D17B7B012B02D1B7
:1057C0003B7B012B01D001233EE07B68022283F862
:1057D0003E207B68022283F83F207B68022283F808
:1057E00042207B68022283F843203B68002B03D0D1
:1057F0003B68042B08D00FE07B681B680122002166
:10580000184600F0D3FF16E07B681B6801220421D4
:10581000184600F0CBFF0EE07B681B6801220021D8
:10582000184600F0C3FF7B681B680122042118465C
:1058300000F0BCFF00BF7B681B681A687B681B68B0
:1058400042F001021A60002318461037BD4680BDA1
:1058500080B582B000AF78607B681B681B6903F07D
:105860000203022B22D17B681B68DB6803F0020372
:10587000022B1BD17B681B686FF002021A617B68E8
:1058800001221A777B681B689B6903F00303002BD6
:1058900003D07868FCF7B0FC05E0786800F054FBB2
:1058A000786800F05BFB7B6800221A777B681B68D6
:1058B0001B6903F00403042B22D17B681B68DB689F
:1058C00003F00403042B1BD17B681B686FF00402F8
:1058D0001A617B6802221A777B681B689B6903F454
:1058E0004073002B03D07868FCF786FC05E07868ED
:1058F00000F02AFB786800F031FB7B6800221A7701
:105900007B681B681B6903F00803082B22D17B68A6
:105910001B68DB6803F00803082B1BD17B681B683E
:105920006FF008021A617B6804221A777B681B6893
:10593000DB6903F00303002B03D07868FCF75CFC01
:1059400005E0786800F000FB786800F007FB7B68F2
:1059500000221A777B681B681B6903F01003102B69
:1059600022D17B681B68DB6803F01003102B1BD16E
:105970007B681B686FF010021A617B6808221A7737
:105980007B681B68DB6903F44073002B03D07868E5
:10599000FCF732FC05E0786800F0D6FA786800F091
:1059A000DDFA7B6800221A777B681B681B6903F0AD
:1059B0000103012B0ED17B681B68DB6803F0010338
:1059C000012B07D17B681B686FF001021A617868B0
:1059D00000F0B0FA7B681B681B6903F08003802B22
:1059E0000ED17B681B68DB6803F08003802B07D136
:1059F0007B681B686FF080021A61786800F0D4FF42
:105A00007B681B681B6903F04003402B0ED17B6849
:105A10001B68DB6803F04003402B07D17B681B68E1
:105A20006FF040021A61786800F0A2FA7B681B6888
:105A30001B6903F02003202B0ED17B681B68DB68F9
:105A400003F02003202B07D17B681B686FF0200236
:105A50001A61786800F09EFF00BF0837BD4680BD20
:105A600080B586B000AFF860B9607A600023FB753E
:105A7000FB6893F83C30012B01D1022388E0FB68DE
:105A8000012283F83C207B68002B1BD1FB6818683F
:105A9000BB681968BB685A68BB68DB6800F0C2FC69
:105AA000FB681B689A69FB681B6822F00C029A610C
:105AB000FB681B689969BB689A68FB681B680A43A6
:105AC0009A6160E07B68042B1CD1FB681868BB6896
:105AD0001968BB685A68BB68DB6800F046FDFB6864
